{"abi":[{"type":"constructor","inputs":[{"name":"_coValidator","type":"address","internalType":"address"}],"stateMutability":"nonpayable"},{"type":"function","name":"coValidator","inputs":[],"outputs":[{"name":"","type":"address","internalType":"address"}],"stateMutability":"view"},{"type":"function","name":"getParticipants","inputs":[],"outputs":[{"name":"","type":"address[]","internalType":"address[]"}],"stateMutability":"view"},{"type":"function","name":"getWealthbyUser","inputs":[],"outputs":[{"name":"","type":"bytes32","internalType":"euint256"}],"stateMutability":"view"},{"type":"function","name":"getWinners","inputs":[],"outputs":[{"name":"","type":"address[]","internalType":"address[]"}],"stateMutability":"view"},{"type":"function","name":"maxWealth","inputs":[],"outputs":[{"name":"","type":"bytes32","internalType":"euint256"}],"stateMutability":"view"},{"type":"function","name":"owner","inputs":[],"outputs":[{"name":"","type":"address","internalType":"address"}],"stateMutability":"view"},{"type":"function","name":"participants","inputs":[{"name":"","type":"uint256","internalType":"uint256"}],"outputs":[{"name":"","type":"address","internalType":"address"}],"stateMutability":"view"},{"type":"function","name":"renounceOwnership","inputs":[],"outputs":[],"stateMutability":"nonpayable"},{"type":"function","name":"resetArrays","inputs":[],"outputs":[],"stateMutability":"nonpayable"},{"type":"function","name":"resultCallback","inputs":[{"name":"","type":"uint256","internalType":"uint256"},{"name":"result","type":"bool","internalType":"bool"},{"name":"data","type":"bytes","internalType":"bytes"}],"outputs":[],"stateMutability":"nonpayable"},{"type":"function","name":"richest","inputs":[],"outputs":[],"stateMutability":"nonpayable"},{"type":"function","name":"submitWealth","inputs":[{"name":"eAmount","type":"bytes","internalType":"bytes"}],"outputs":[],"stateMutability":"nonpayable"},{"type":"function","name":"transferOwnership","inputs":[{"name":"newOwner","type":"address","internalType":"address"}],"outputs":[],"stateMutability":"nonpayable"},{"type":"function","name":"updateCoValidator","inputs":[{"name":"_coValidator","type":"address","internalType":"address"}],"outputs":[],"stateMutability":"nonpayable"},{"type":"function","name":"winners","inputs":[{"name":"","type":"uint256","internalType":"uint256"}],"outputs":[{"name":"","type":"address","internalType":"address"}],"stateMutability":"view"},{"type":"event","name":"OwnershipTransferred","inputs":[{"name":"previousOwner","type":"address","indexed":true,"internalType":"address"},{"name":"newOwner","type":"address","indexed":true,"internalType":"address"}],"anonymous":false},{"type":"error","name":"OwnableInvalidOwner","inputs":[{"name":"owner","type":"address","internalType":"address"}]},{"type":"error","name":"OwnableUnauthorizedAccount","inputs":[{"name":"account","type":"address","internalType":"address"}]}],"bytecode":{"object":"0x608060405234801561000f575f5ffd5b506040516124b23803806124b283398181016040528101906100319190610217565b335f73ffffffffffffffffffffffffffffffffffffffff168173ffffffffffffffffffffffffffffffffffffffff16036100a2575f6040517f1e4fbdf70000000000000000000000000000000000000000000000000000000081526004016100999190610251565b60405180910390fd5b6100b1816100f860201b60201c565b508060035f6101000a81548173ffffffffffffffffffffffffffffffffffffffff021916908373ffffffffffffffffffffffffffffffffffffffff1602179055505061026a565b5f5f5f9054906101000a900473ffffffffffffffffffffffffffffffffffffffff169050815f5f6101000a81548173ffffffffffffffffffffffffffffffffffffffff021916908373ffffffffffffffffffffffffffffffffffffffff1602179055508173ffffffffffffffffffffffffffffffffffffffff168173ffffffffffffffffffffffffffffffffffffffff167f8be0079c531659141344cd1fd0a4f28419497f9722a3daafe3b4186f6b6457e060405160405180910390a35050565b5f5ffd5b5f73ffffffffffffffffffffffffffffffffffffffff82169050919050565b5f6101e6826101bd565b9050919050565b6101f6816101dc565b8114610200575f5ffd5b50565b5f81519050610211816101ed565b92915050565b5f6020828403121561022c5761022b6101b9565b5b5f61023984828501610203565b91505092915050565b61024b816101dc565b82525050565b5f6020820190506102645f830184610242565b92915050565b61223b806102775f395ff3fe608060405234801561000f575f5ffd5b50600436106100f3575f3560e01c80639129b1e911610095578063d521ce9311610064578063d521ce9314610225578063df15c37e14610241578063e3723c991461025f578063f2fde38b1461027d576100f3565b80639129b1e9146101b1578063a2fb1175146101cd578063b20933a7146101fd578063c453989d14610207576100f3565b80634d7b50c0116100d15780634d7b50c01461014d5780635aa68ac01461016b578063715018a6146101895780638da5cb5b14610193576100f3565b806302e26c38146100f757806305b7908c1461010157806335c1d3491461011d575b5f5ffd5b6100ff610299565b005b61011b60048036038101906101169190611876565b61061d565b005b610137600480360381019061013291906118e2565b61086f565b604051610144919061194c565b60405180910390f35b6101556108aa565b604051610162919061198e565b60405180910390f35b6101736108b0565b6040516101809190611a5e565b60405180910390f35b61019161093b565b005b61019b61094e565b6040516101a8919061194c565b60405180910390f35b6101cb60048036038101906101c69190611a7e565b610975565b005b6101e760048036038101906101e291906118e2565b610b19565b6040516101f4919061194c565b60405180910390f35b610205610b54565b005b61020f610d07565b60405161021c919061198e565b60405180910390f35b61023f600480360381019061023a9190611aef565b610df0565b005b610249610e3b565b6040516102569190611a5e565b60405180910390f35b610267610ec6565b604051610274919061194c565b60405180910390f35b61029760048036038101906102929190611aef565b610eeb565b005b5f600480549050116102e0576040517f08c379a00000000000000000000000000000000000000000000000000000000081526004016102d790611b74565b60405180910390fd5b5b5f6005805490501115610337576005805480610300576102ff611b92565b5b600190038181905f5260205f20015f6101000a81549073ffffffffffffffffffffffffffffffffffffffff021916905590556102e1565b5f600480549050905060015f60045f8154811061035757610356611bbf565b5b905f5260205f20015f9054906101000a900473ffffffffffffffffffffffffffffffffffffffff1673ffffffffffffffffffffffffffffffffffffffff1673ffffffffffffffffffffffffffffffffffffffff1681526020019081526020015f20546006819055505f600190505b818110156104f6575f61045b60065460015f600486815481106103eb576103ea611bbf565b5b905f5260205f20015f9054906101000a900473ffffffffffffffffffffffffffffffffffffffff1673ffffffffffffffffffffffffffffffffffffffff1673ffffffffffffffffffffffffffffffffffffffff1681526020019081526020015f2054610f6f90919063ffffffff16565b90506104e28160015f6004868154811061047857610477611bbf565b5b905f5260205f20015f9054906101000a900473ffffffffffffffffffffffffffffffffffffffff1673ffffffffffffffffffffffffffffffffffffffff1673ffffffffffffffffffffffffffffffffffffffff1681526020019081526020015f2054600654611017565b6006819055505080806001019150506103c5565b505f5f90505b81811015610619575f61059260065460015f6004868154811061052257610521611bbf565b5b905f5260205f20015f9054906101000a900473ffffffffffffffffffffffffffffffffffffffff1673ffffffffffffffffffffffffffffffffffffffff1673ffffffffffffffffffffffffffffffffffffffff1681526020019081526020015f20546110ca90919063ffffffff16565b905061060a6305b7908c60e01b600484815481106105b3576105b2611bbf565b5b905f5260205f20015f9054906101000a900473ffffffffffffffffffffffffffffffffffffffff166040516020016105eb919061194c565b604051602081830303815290604052836111729092919063ffffffff16565b505080806001019150506104fc565b5050565b60035f9054906101000a900473ffffffffffffffffffffffffffffffffffffffff1673ffffffffffffffffffffffffffffffffffffffff163373ffffffffffffffffffffffffffffffffffffffff16146106ac576040517f08c379a00000000000000000000000000000000000000000000000000000000081526004016106a390611c36565b60405180910390fd5b81156108695760025f828060200190518101906106c99190611c8f565b73ffffffffffffffffffffffffffffffffffffffff1673ffffffffffffffffffffffffffffffffffffffff1681526020019081526020015f205f9054906101000a900460ff1661074e576040517f08c379a000000000000000000000000000000000000000000000000000000000815260040161074590611d04565b60405180910390fd5b5f5f90505b6005805490508110156107f457818060200190518101906107749190611c8f565b73ffffffffffffffffffffffffffffffffffffffff166005828154811061079e5761079d611bbf565b5b905f5260205f20015f9054906101000a900473ffffffffffffffffffffffffffffffffffffffff1673ffffffffffffffffffffffffffffffffffffffff16036107e7575061086a565b8080600101915050610753565b5060058180602001905181019061080b9190611c8f565b908060018154018082558091505060019003905f5260205f20015f9091909190916101000a81548173ffffffffffffffffffffffffffffffffffffffff021916908373ffffffffffffffffffffffffffffffffffffffff1602179055505b5b505050565b6004818154811061087e575f80fd5b905f5260205f20015f915054906101000a900473ffffffffffffffffffffffffffffffffffffffff1681565b60065481565b6060600480548060200260200160405190810160405280929190818152602001828054801561093157602002820191905f5260205f20905b815f9054906101000a900473ffffffffffffffffffffffffffffffffffffffff1673ffffffffffffffffffffffffffffffffffffffff16815260200190600101908083116108e8575b5050505050905090565b610943611224565b61094c5f6112ab565b565b5f5f5f9054906101000a900473ffffffffffffffffffffffffffffffffffffffff16905090565b60025f3373ffffffffffffffffffffffffffffffffffffffff1673ffffffffffffffffffffffffffffffffffffffff1681526020019081526020015f205f9054906101000a900460ff16156109ff576040517f08c379a00000000000000000000000000000000000000000000000000000000081526004016109f690611d6c565b60405180910390fd5b5f610a13338361136c90919063ffffffff16565b9050610a1e81611404565b8060015f3373ffffffffffffffffffffffffffffffffffffffff1673ffffffffffffffffffffffffffffffffffffffff1681526020019081526020015f2081905550600160025f3373ffffffffffffffffffffffffffffffffffffffff1673ffffffffffffffffffffffffffffffffffffffff1681526020019081526020015f205f6101000a81548160ff021916908315150217905550600433908060018154018082558091505060019003905f5260205f20015f9091909190916101000a81548173ffffffffffffffffffffffffffffffffffffffff021916908373ffffffffffffffffffffffffffffffffffffffff1602179055505050565b60058181548110610b28575f80fd5b905f5260205f20015f915054906101000a900473ffffffffffffffffffffffffffffffffffffffff1681565b5b5f6004805490501115610c9f575f60046001600480549050610b779190611db7565b81548110610b8857610b87611bbf565b5b905f5260205f20015f9054906101000a900473ffffffffffffffffffffffffffffffffffffffff1690505f5f9050610bbf81611411565b60015f8473ffffffffffffffffffffffffffffffffffffffff1673ffffffffffffffffffffffffffffffffffffffff1681526020019081526020015f20819055505f60025f8473ffffffffffffffffffffffffffffffffffffffff1673ffffffffffffffffffffffffffffffffffffffff1681526020019081526020015f205f6101000a81548160ff0219169083151502179055506004805480610c6657610c65611b92565b5b600190038181905f5260205f20015f6101000a81549073ffffffffffffffffffffffffffffffffffffffff021916905590555050610b55565b5b5f6005805490501115610cf6576005805480610cbf57610cbe611b92565b5b600190038181905f5260205f20015f6101000a81549073ffffffffffffffffffffffffffffffffffffffff02191690559055610ca0565b610cff5f611411565b600681905550565b5f610d6e60015f3373ffffffffffffffffffffffffffffffffffffffff1673ffffffffffffffffffffffffffffffffffffffff1681526020019081526020015f20543373ffffffffffffffffffffffffffffffffffffffff166114a690919063ffffffff16565b610dad576040517f08c379a0000000000000000000000000000000000000000000000000000000008152600401610da490611e34565b60405180910390fd5b60015f3373ffffffffffffffffffffffffffffffffffffffff1673ffffffffffffffffffffffffffffffffffffffff1681526020019081526020015f2054905090565b610df8611224565b8060035f6101000a81548173ffffffffffffffffffffffffffffffffffffffff021916908373ffffffffffffffffffffffffffffffffffffffff16021790555050565b60606005805480602002602001604051908101604052809291908181526020018280548015610ebc57602002820191905f5260205f20905b815f9054906101000a900473ffffffffffffffffffffffffffffffffffffffff1673ffffffffffffffffffffffffffffffffffffffff1681526020019060010190808311610e73575b5050505050905090565b60035f9054906101000a900473ffffffffffffffffffffffffffffffffffffffff1681565b610ef3611224565b5f73ffffffffffffffffffffffffffffffffffffffff168173ffffffffffffffffffffffffffffffffffffffff1603610f63575f6040517f1e4fbdf7000000000000000000000000000000000000000000000000000000008152600401610f5a919061194c565b60405180910390fd5b610f6c816112ab565b50565b5f7363d8135af4d393b1db43b649010c8d3ee19fc9fd73ffffffffffffffffffffffffffffffffffffffff166305f6c427610fa98561153d565b610fb28561153d565b6040518363ffffffff1660e01b8152600401610fcf929190611e52565b6020604051808303815f875af1158015610feb573d5f5f3e3d5ffd5b505050506040513d601f19601f8201168201806040525081019061100f9190611ea3565b905092915050565b5f7363d8135af4d393b1db43b649010c8d3ee19fc9fd73ffffffffffffffffffffffffffffffffffffffff1663d9d017f66110518661154e565b61105a8661153d565b6110638661153d565b6040518463ffffffff1660e01b815260040161108193929190611eec565b6020604051808303815f875af115801561109d573d5f5f3e3d5ffd5b505050506040513d601f19601f820116820180604052508101906110c19190611f4b565b90509392505050565b5f7363d8135af4d393b1db43b649010c8d3ee19fc9fd73ffffffffffffffffffffffffffffffffffffffff1663e25800ab6111048561153d565b61110d8561153d565b6040518363ffffffff1660e01b815260040161112a929190611e52565b6020604051808303815f875af1158015611146573d5f5f3e3d5ffd5b505050506040513d601f19601f8201168201806040525081019061116a9190611ea3565b905092915050565b5f7363d8135af4d393b1db43b649010c8d3ee19fc9fd73ffffffffffffffffffffffffffffffffffffffff1663f3ff21f284611c20426111b29190611f76565b6111bb8861154e565b866040518563ffffffff1660e01b81526004016111db9493929190612052565b6020604051808303815f875af11580156111f7573d5f5f3e3d5ffd5b505050506040513d601f19601f8201168201806040525081019061121b91906120b0565b90509392505050565b61122c61155f565b73ffffffffffffffffffffffffffffffffffffffff1661124a61094e565b73ffffffffffffffffffffffffffffffffffffffff16146112a95761126d61155f565b6040517f118cdaa70000000000000000000000000000000000000000000000000000000081526004016112a0919061194c565b60405180910390fd5b565b5f5f5f9054906101000a900473ffffffffffffffffffffffffffffffffffffffff169050815f5f6101000a81548173ffffffffffffffffffffffffffffffffffffffff021916908373ffffffffffffffffffffffffffffffffffffffff1602179055508173ffffffffffffffffffffffffffffffffffffffff168173ffffffffffffffffffffffffffffffffffffffff167f8be0079c531659141344cd1fd0a4f28419497f9722a3daafe3b4186f6b6457e060405160405180910390a35050565b5f7363d8135af4d393b1db43b649010c8d3ee19fc9fd73ffffffffffffffffffffffffffffffffffffffff1663ba76f2a984846040518363ffffffff1660e01b81526004016113bc9291906120db565b6020604051808303815f875af11580156113d8573d5f5f3e3d5ffd5b505050506040513d601f19601f820116820180604052508101906113fc9190612133565b905092915050565b61140e8130611566565b50565b5f7363d8135af4d393b1db43b649010c8d3ee19fc9fd73ffffffffffffffffffffffffffffffffffffffff166367e7a37e836040518263ffffffff1660e01b815260040161145f919061215e565b6020604051808303815f875af115801561147b573d5f5f3e3d5ffd5b505050506040513d601f19601f8201168201806040525081019061149f9190612133565b9050919050565b5f7363d8135af4d393b1db43b649010c8d3ee19fc9fd73ffffffffffffffffffffffffffffffffffffffff166382027b6d83856040518363ffffffff1660e01b81526004016114f6929190612177565b602060405180830381865afa158015611511573d5f5f3e3d5ffd5b505050506040513d601f19601f8201168201806040525081019061153591906121b2565b905092915050565b5f611547826115e6565b9050919050565b5f61155882611609565b9050919050565b5f33905090565b7363d8135af4d393b1db43b649010c8d3ee19fc9fd73ffffffffffffffffffffffffffffffffffffffff1663b9496b6283836040518363ffffffff1660e01b81526004016115b5929190612177565b5f604051808303815f87803b1580156115cc575f5ffd5b505af11580156115de573d5f5f3e3d5ffd5b505050505050565b5f5f5f1b8203611600576115f95f611411565b9050611604565b8190505b919050565b5f5f5f1b82036116235761161c5f61162c565b9050611627565b8190505b919050565b5f7363d8135af4d393b1db43b649010c8d3ee19fc9fd73ffffffffffffffffffffffffffffffffffffffff16635d7d5397836040518263ffffffff1660e01b815260040161167a91906121ec565b6020604051808303815f875af1158015611696573d5f5f3e3d5ffd5b505050506040513d601f19601f820116820180604052508101906116ba9190611ea3565b9050919050565b5f604051905090565b5f5ffd5b5f5ffd5b5f819050919050565b6116e4816116d2565b81146116ee575f5ffd5b50565b5f813590506116ff816116db565b92915050565b5f8115159050919050565b61171981611705565b8114611723575f5ffd5b50565b5f8135905061173481611710565b92915050565b5f5ffd5b5f5ffd5b5f601f19601f8301169050919050565b7f4e487b71000000000000000000000000000000000000000000000000000000005f52604160045260245ffd5b61178882611742565b810181811067ffffffffffffffff821117156117a7576117a6611752565b5b80604052505050565b5f6117b96116c1565b90506117c5828261177f565b919050565b5f67ffffffffffffffff8211156117e4576117e3611752565b5b6117ed82611742565b9050602081019050919050565b828183375f83830152505050565b5f61181a611815846117ca565b6117b0565b9050828152602081018484840111156118365761183561173e565b5b6118418482856117fa565b509392505050565b5f82601f83011261185d5761185c61173a565b5b813561186d848260208601611808565b91505092915050565b5f5f5f6060848603121561188d5761188c6116ca565b5b5f61189a868287016116f1565b93505060206118ab86828701611726565b925050604084013567ffffffffffffffff8111156118cc576118cb6116ce565b5b6118d886828701611849565b9150509250925092565b5f602082840312156118f7576118f66116ca565b5b5f611904848285016116f1565b91505092915050565b5f73ffffffffffffffffffffffffffffffffffffffff82169050919050565b5f6119368261190d565b9050919050565b6119468161192c565b82525050565b5f60208201905061195f5f83018461193d565b92915050565b5f819050919050565b5f61197882611965565b9050919050565b6119888161196e565b82525050565b5f6020820190506119a15f83018461197f565b92915050565b5f81519050919050565b5f82825260208201905092915050565b5f819050602082019050919050565b6119d98161192c565b82525050565b5f6119ea83836119d0565b60208301905092915050565b5f602082019050919050565b5f611a0c826119a7565b611a1681856119b1565b9350611a21836119c1565b805f5b83811015611a51578151611a3888826119df565b9750611a43836119f6565b925050600181019050611a24565b5085935050505092915050565b5f6020820190508181035f830152611a768184611a02565b905092915050565b5f60208284031215611a9357611a926116ca565b5b5f82013567ffffffffffffffff811115611ab057611aaf6116ce565b5b611abc84828501611849565b91505092915050565b611ace8161192c565b8114611ad8575f5ffd5b50565b5f81359050611ae981611ac5565b92915050565b5f60208284031215611b0457611b036116ca565b5b5f611b1184828501611adb565b91505092915050565b5f82825260208201905092915050565b7f4e6f207061727469636970616e747320617661696c61626c65000000000000005f82015250565b5f611b5e601983611b1a565b9150611b6982611b2a565b602082019050919050565b5f6020820190508181035f830152611b8b81611b52565b9050919050565b7f4e487b71000000000000000000000000000000000000000000000000000000005f52603160045260245ffd5b7f4e487b71000000000000000000000000000000000000000000000000000000005f52603260045260245ffd5b7f4f6e6c7920636f2d76616c696461746f722063616e2063616c6c0000000000005f82015250565b5f611c20601a83611b1a565b9150611c2b82611bec565b602082019050919050565b5f6020820190508181035f830152611c4d81611c14565b9050919050565b5f611c5e8261190d565b9050919050565b611c6e81611c54565b8114611c78575f5ffd5b50565b5f81519050611c8981611c65565b92915050565b5f60208284031215611ca457611ca36116ca565b5b5f611cb184828501611c7b565b91505092915050565b7f4e6f7420636f756e7465640000000000000000000000000000000000000000005f82015250565b5f611cee600b83611b1a565b9150611cf982611cba565b602082019050919050565b5f6020820190508181035f830152611d1b81611ce2565b9050919050565b7f416c726561647920416d6f756e742041646465640000000000000000000000005f82015250565b5f611d56601483611b1a565b9150611d6182611d22565b602082019050919050565b5f6020820190508181035f830152611d8381611d4a565b9050919050565b7f4e487b71000000000000000000000000000000000000000000000000000000005f52601160045260245ffd5b5f611dc1826116d2565b9150611dcc836116d2565b9250828203905081811115611de457611de3611d8a565b5b92915050565b7f4e6f7420416c6c6f77656420746f2066657463680000000000000000000000005f82015250565b5f611e1e601483611b1a565b9150611e2982611dea565b602082019050919050565b5f6020820190508181035f830152611e4b81611e12565b9050919050565b5f604082019050611e655f83018561197f565b611e72602083018461197f565b9392505050565b611e8281611965565b8114611e8c575f5ffd5b50565b5f81519050611e9d81611e79565b92915050565b5f60208284031215611eb857611eb76116ca565b5b5f611ec584828501611e8f565b91505092915050565b611ed78161196e565b82525050565b611ee681611965565b82525050565b5f606082019050611eff5f830186611ece565b611f0c6020830185611edd565b611f196040830184611edd565b949350505050565b611f2a81611965565b8114611f34575f5ffd5b50565b5f81519050611f4581611f21565b92915050565b5f60208284031215611f6057611f5f6116ca565b5b5f611f6d84828501611f37565b91505092915050565b5f611f80826116d2565b9150611f8b836116d2565b9250828201905080821115611fa357611fa2611d8a565b5b92915050565b5f7fffffffff0000000000000000000000000000000000000000000000000000000082169050919050565b611fdd81611fa9565b82525050565b611fec816116d2565b82525050565b5f81519050919050565b5f82825260208201905092915050565b8281835e5f83830152505050565b5f61202482611ff2565b61202e8185611ffc565b935061203e81856020860161200c565b61204781611742565b840191505092915050565b5f6080820190506120655f830187611fd4565b6120726020830186611fe3565b61207f6040830185611edd565b8181036060830152612091818461201a565b905095945050505050565b5f815190506120aa816116db565b92915050565b5f602082840312156120c5576120c46116ca565b5b5f6120d28482850161209c565b91505092915050565b5f6040820190508181035f8301526120f3818561201a565b9050612102602083018461193d565b9392505050565b61211281611965565b811461211c575f5ffd5b50565b5f8151905061212d81612109565b92915050565b5f60208284031215612148576121476116ca565b5b5f6121558482850161211f565b91505092915050565b5f6020820190506121715f830184611fe3565b92915050565b5f60408201905061218a5f830185611edd565b612197602083018461193d565b9392505050565b5f815190506121ac81611710565b92915050565b5f602082840312156121c7576121c66116ca565b5b5f6121d48482850161219e565b91505092915050565b6121e681611705565b82525050565b5f6020820190506121ff5f8301846121dd565b9291505056fea2646970667358221220378c0cf169b996f01919b7d5a0b819982adcd8462db0908db81d5247b0c049c964736f6c634300081c0033","linkReferences":{}},"methodIdentifiers":{"coValidator()":"e3723c99","getParticipants()":"5aa68ac0","getWealthbyUser()":"c453989d","getWinners()":"df15c37e","maxWealth()":"4d7b50c0","owner()":"8da5cb5b","participants(uint256)":"35c1d349","renounceOwnership()":"715018a6","resetArrays()":"b20933a7","resultCallback(uint256,bool,bytes)":"05b7908c","richest()":"02e26c38","submitWealth(bytes)":"9129b1e9","transferOwnership(address)":"f2fde38b","updateCoValidator(address)":"d521ce93","winners(uint256)":"a2fb1175"},"id":0}